{
  "_format": "hh-sol-artifact-1",
  "contractName": "Loyotos",
  "sourceName": "contracts/Loyotos.sol",
  "abi": [
    {
      "inputs": [],
      "stateMutability": "nonpayable",
      "type": "constructor"
    },
    {
      "inputs": [],
      "name": "AlreadyWithdrawn",
      "type": "error"
    },
    {
      "inputs": [
        {
          "internalType": "uint256",
          "name": "_lockEnd",
          "type": "uint256"
        }
      ],
      "name": "Locked",
      "type": "error"
    },
    {
      "inputs": [],
      "name": "NotEnvelopeOwner",
      "type": "error"
    },
    {
      "anonymous": false,
      "inputs": [
        {
          "indexed": false,
          "internalType": "uint256",
          "name": "_id",
          "type": "uint256"
        },
        {
          "indexed": false,
          "internalType": "address",
          "name": "owner",
          "type": "address"
        }
      ],
      "name": "EnvelopeCreated",
      "type": "event"
    },
    {
      "anonymous": false,
      "inputs": [
        {
          "indexed": false,
          "internalType": "uint256",
          "name": "_id",
          "type": "uint256"
        },
        {
          "indexed": false,
          "internalType": "address",
          "name": "owner",
          "type": "address"
        }
      ],
      "name": "EnvelopeWithdrawn",
      "type": "event"
    },
    {
      "anonymous": false,
      "inputs": [
        {
          "indexed": false,
          "internalType": "uint256",
          "name": "_id",
          "type": "uint256"
        },
        {
          "indexed": false,
          "internalType": "address",
          "name": "_depositor",
          "type": "address"
        },
        {
          "indexed": false,
          "internalType": "uint256",
          "name": "_amount",
          "type": "uint256"
        },
        {
          "indexed": false,
          "internalType": "uint256",
          "name": "_totalAmount",
          "type": "uint256"
        }
      ],
      "name": "FundsDeposited",
      "type": "event"
    },
    {
      "inputs": [
        {
          "internalType": "uint64",
          "name": "_lockEnd",
          "type": "uint64"
        },
        {
          "internalType": "string",
          "name": "_title",
          "type": "string"
        }
      ],
      "name": "createEnvelope",
      "outputs": [],
      "stateMutability": "nonpayable",
      "type": "function"
    },
    {
      "inputs": [
        {
          "internalType": "uint256",
          "name": "",
          "type": "uint256"
        }
      ],
      "name": "envelopes",
      "outputs": [
        {
          "internalType": "uint256",
          "name": "id",
          "type": "uint256"
        },
        {
          "internalType": "uint256",
          "name": "weiAmount",
          "type": "uint256"
        },
        {
          "internalType": "uint64",
          "name": "lockEnd",
          "type": "uint64"
        },
        {
          "internalType": "address payable",
          "name": "owner",
          "type": "address"
        },
        {
          "internalType": "bool",
          "name": "isWithdrawn",
          "type": "bool"
        },
        {
          "internalType": "string",
          "name": "title",
          "type": "string"
        }
      ],
      "stateMutability": "view",
      "type": "function"
    },
    {
      "inputs": [],
      "name": "envelopesCount",
      "outputs": [
        {
          "internalType": "uint256",
          "name": "",
          "type": "uint256"
        }
      ],
      "stateMutability": "view",
      "type": "function"
    },
    {
      "inputs": [
        {
          "internalType": "address",
          "name": "",
          "type": "address"
        }
      ],
      "name": "envelopesCountByOwner",
      "outputs": [
        {
          "internalType": "uint256",
          "name": "",
          "type": "uint256"
        }
      ],
      "stateMutability": "view",
      "type": "function"
    },
    {
      "inputs": [
        {
          "internalType": "address",
          "name": "_owner",
          "type": "address"
        }
      ],
      "name": "getEnvelopesByOwner",
      "outputs": [
        {
          "components": [
            {
              "internalType": "uint256",
              "name": "id",
              "type": "uint256"
            },
            {
              "internalType": "uint256",
              "name": "weiAmount",
              "type": "uint256"
            },
            {
              "internalType": "uint64",
              "name": "lockEnd",
              "type": "uint64"
            },
            {
              "internalType": "address payable",
              "name": "owner",
              "type": "address"
            },
            {
              "internalType": "bool",
              "name": "isWithdrawn",
              "type": "bool"
            },
            {
              "internalType": "string",
              "name": "title",
              "type": "string"
            }
          ],
          "internalType": "struct Loyotos.Envelope[]",
          "name": "ownerEnvelopes",
          "type": "tuple[]"
        }
      ],
      "stateMutability": "view",
      "type": "function"
    },
    {
      "inputs": [
        {
          "internalType": "uint256",
          "name": "_id",
          "type": "uint256"
        }
      ],
      "name": "sendEthToEnvelope",
      "outputs": [],
      "stateMutability": "payable",
      "type": "function"
    },
    {
      "inputs": [
        {
          "internalType": "uint256",
          "name": "_id",
          "type": "uint256"
        }
      ],
      "name": "withdraw",
      "outputs": [],
      "stateMutability": "nonpayable",
      "type": "function"
    }
  ],
  "bytecode": "0x60806040526000805534801561001457600080fd5b50611614806100246000396000f3fe6080604052600436106100705760003560e01c80637a5ddbfa1161004e5780637a5ddbfa1461011d578063bbb35ec61461015a578063cceedc2114610183578063d73fa417146101ae57610070565b80631df95786146100755780632e1a7d4d146100b7578063545e2d01146100e0575b600080fd5b34801561008157600080fd5b5061009c60048036038101906100979190610b93565b6101ca565b6040516100ae96959493929190610cde565b60405180910390f35b3480156100c357600080fd5b506100de60048036038101906100d99190610b93565b6102cf565b005b3480156100ec57600080fd5b5061010760048036038101906101029190610d84565b61052e565b6040516101149190610db1565b60405180910390f35b34801561012957600080fd5b50610144600480360381019061013f9190610d84565b610546565b6040516101519190610f9d565b60405180910390f35b34801561016657600080fd5b50610181600480360381019061017c9190611050565b610817565b005b34801561018f57600080fd5b50610198610a35565b6040516101a59190610db1565b60405180910390f35b6101c860048036038101906101c39190610b93565b610a3b565b005b60016020528060005260406000206000915090508060000154908060010154908060020160009054906101000a900467ffffffffffffffff16908060020160089054906101000a900473ffffffffffffffffffffffffffffffffffffffff169080600201601c9054906101000a900460ff169080600301805461024c906110df565b80601f0160208091040260200160405190810160405280929190818152602001828054610278906110df565b80156102c55780601f1061029a576101008083540402835291602001916102c5565b820191906000526020600020905b8154815290600101906020018083116102a857829003601f168201915b5050505050905086565b60006001600083815260200190815260200160002090503373ffffffffffffffffffffffffffffffffffffffff168160020160089054906101000a900473ffffffffffffffffffffffffffffffffffffffff1673ffffffffffffffffffffffffffffffffffffffff161461036f576040517f8cd851a700000000000000000000000000000000000000000000000000000000815260040160405180910390fd5b428160020160009054906101000a900467ffffffffffffffff1667ffffffffffffffff1611156103ee578060020160009054906101000a900467ffffffffffffffff166040517f032bc66b0000000000000000000000000000000000000000000000000000000081526004016103e5919061114b565b60405180910390fd5b80600201601c9054906101000a900460ff1615610437576040517f6507689f00000000000000000000000000000000000000000000000000000000815260040160405180910390fd5b600181600201601c6101000a81548160ff0219169083151502179055508060020160089054906101000a900473ffffffffffffffffffffffffffffffffffffffff1673ffffffffffffffffffffffffffffffffffffffff166108fc82600101549081150290604051600060405180830381858888f193505050501580156104c2573d6000803e3d6000fd5b50600081600101819055507fc23a8e925568cb11c2dbadb3395dfad13d9b02ebf8b226a8e7fe5cc4e902a499828260020160089054906101000a900473ffffffffffffffffffffffffffffffffffffffff166040516105229291906111bb565b60405180910390a15050565b60026020528060005260406000206000915090505481565b60606000805490506000600260008573ffffffffffffffffffffffffffffffffffffffff1673ffffffffffffffffffffffffffffffffffffffff1681526020019081526020016000205490506000808267ffffffffffffffff8111156105af576105ae6111e4565b5b6040519080825280602002602001820160405280156105e857816020015b6105d5610afb565b8152602001906001900390816105cd5790505b50905060005b8481101561080a576000600160008381526020019081526020016000206040518060c001604052908160008201548152602001600182015481526020016002820160009054906101000a900467ffffffffffffffff1667ffffffffffffffff1667ffffffffffffffff1681526020016002820160089054906101000a900473ffffffffffffffffffffffffffffffffffffffff1673ffffffffffffffffffffffffffffffffffffffff1673ffffffffffffffffffffffffffffffffffffffff16815260200160028201601c9054906101000a900460ff161515151581526020016003820180546106dd906110df565b80601f0160208091040260200160405190810160405280929190818152602001828054610709906110df565b80156107565780601f1061072b57610100808354040283529160200191610756565b820191906000526020600020905b81548152906001019060200180831161073957829003601f168201915b50505050508152505090508773ffffffffffffffffffffffffffffffffffffffff166001600084815260200190815260200160002060020160089054906101000a900473ffffffffffffffffffffffffffffffffffffffff1673ffffffffffffffffffffffffffffffffffffffff16036107f657808385815181106107de576107dd611213565b5b6020026020010181905250836107f390611271565b93505b50808061080290611271565b9150506105ee565b5080945050505050919050565b60006040518060c001604052806000548152602001600081526020018567ffffffffffffffff1681526020013373ffffffffffffffffffffffffffffffffffffffff16815260200160001515815260200184848080601f016020809104026020016040519081016040528093929190818152602001838380828437600081840152601f19601f820116905080830192505050505050508152509050806001600080548152602001908152602001600020600082015181600001556020820151816001015560408201518160020160006101000a81548167ffffffffffffffff021916908367ffffffffffffffff16021790555060608201518160020160086101000a81548173ffffffffffffffffffffffffffffffffffffffff021916908373ffffffffffffffffffffffffffffffffffffffff160217905550608082015181600201601c6101000a81548160ff02191690831515021790555060a0820151816003019081610986919061145b565b50905050600080815461099890611271565b91905081905550600260003373ffffffffffffffffffffffffffffffffffffffff1673ffffffffffffffffffffffffffffffffffffffff16815260200190815260200160002060008154809291906109ef90611271565b91905055507f3162dfdc09b67a736521fc30f04b8f7d2ecaa89d27441b7f350e79251747d13f60005433604051610a2792919061153c565b60405180910390a150505050565b60005481565b600060016000838152602001908152602001600020905080600201601c9054906101000a900460ff1615610a9b576040517f6507689f00000000000000000000000000000000000000000000000000000000815260040160405180910390fd5b34816001016000828254610aaf9190611565565b925050819055507f1c5831173620d6383a8570c099431dfb1eb2fcafeb44302976ed2cfecc4b788b8233348460010154604051610aef9493929190611599565b60405180910390a15050565b6040518060c001604052806000815260200160008152602001600067ffffffffffffffff168152602001600073ffffffffffffffffffffffffffffffffffffffff168152602001600015158152602001606081525090565b600080fd5b600080fd5b6000819050919050565b610b7081610b5d565b8114610b7b57600080fd5b50565b600081359050610b8d81610b67565b92915050565b600060208284031215610ba957610ba8610b53565b5b6000610bb784828501610b7e565b91505092915050565b610bc981610b5d565b82525050565b600067ffffffffffffffff82169050919050565b610bec81610bcf565b82525050565b600073ffffffffffffffffffffffffffffffffffffffff82169050919050565b6000610c1d82610bf2565b9050919050565b610c2d81610c12565b82525050565b60008115159050919050565b610c4881610c33565b82525050565b600081519050919050565b600082825260208201905092915050565b60005b83811015610c88578082015181840152602081019050610c6d565b60008484015250505050565b6000601f19601f8301169050919050565b6000610cb082610c4e565b610cba8185610c59565b9350610cca818560208601610c6a565b610cd381610c94565b840191505092915050565b600060c082019050610cf36000830189610bc0565b610d006020830188610bc0565b610d0d6040830187610be3565b610d1a6060830186610c24565b610d276080830185610c3f565b81810360a0830152610d398184610ca5565b9050979650505050505050565b6000610d5182610bf2565b9050919050565b610d6181610d46565b8114610d6c57600080fd5b50565b600081359050610d7e81610d58565b92915050565b600060208284031215610d9a57610d99610b53565b5b6000610da884828501610d6f565b91505092915050565b6000602082019050610dc66000830184610bc0565b92915050565b600081519050919050565b600082825260208201905092915050565b6000819050602082019050919050565b610e0181610b5d565b82525050565b610e1081610bcf565b82525050565b610e1f81610c12565b82525050565b610e2e81610c33565b82525050565b600082825260208201905092915050565b6000610e5082610c4e565b610e5a8185610e34565b9350610e6a818560208601610c6a565b610e7381610c94565b840191505092915050565b600060c083016000830151610e966000860182610df8565b506020830151610ea96020860182610df8565b506040830151610ebc6040860182610e07565b506060830151610ecf6060860182610e16565b506080830151610ee26080860182610e25565b5060a083015184820360a0860152610efa8282610e45565b9150508091505092915050565b6000610f138383610e7e565b905092915050565b6000602082019050919050565b6000610f3382610dcc565b610f3d8185610dd7565b935083602082028501610f4f85610de8565b8060005b85811015610f8b5784840389528151610f6c8582610f07565b9450610f7783610f1b565b925060208a01995050600181019050610f53565b50829750879550505050505092915050565b60006020820190508181036000830152610fb78184610f28565b905092915050565b610fc881610bcf565b8114610fd357600080fd5b50565b600081359050610fe581610fbf565b92915050565b600080fd5b600080fd5b600080fd5b60008083601f8401126110105761100f610feb565b5b8235905067ffffffffffffffff81111561102d5761102c610ff0565b5b60208301915083600182028301111561104957611048610ff5565b5b9250929050565b60008060006040848603121561106957611068610b53565b5b600061107786828701610fd6565b935050602084013567ffffffffffffffff81111561109857611097610b58565b5b6110a486828701610ffa565b92509250509250925092565b7f4e487b7100000000000000000000000000000000000000000000000000000000600052602260045260246000fd5b600060028204905060018216806110f757607f821691505b60208210810361110a576111096110b0565b5b50919050565b6000819050919050565b600061113561113061112b84610bcf565b611110565b610b5d565b9050919050565b6111458161111a565b82525050565b6000602082019050611160600083018461113c565b92915050565b600061118161117c61117784610bf2565b611110565b610bf2565b9050919050565b600061119382611166565b9050919050565b60006111a582611188565b9050919050565b6111b58161119a565b82525050565b60006040820190506111d06000830185610bc0565b6111dd60208301846111ac565b9392505050565b7f4e487b7100000000000000000000000000000000000000000000000000000000600052604160045260246000fd5b7f4e487b7100000000000000000000000000000000000000000000000000000000600052603260045260246000fd5b7f4e487b7100000000000000000000000000000000000000000000000000000000600052601160045260246000fd5b600061127c82610b5d565b91507fffffffffffffffffffffffffffffffffffffffffffffffffffffffffffffffff82036112ae576112ad611242565b5b600182019050919050565b60008190508160005260206000209050919050565b60006020601f8301049050919050565b600082821b905092915050565b60006008830261131b7fffffffffffffffffffffffffffffffffffffffffffffffffffffffffffffffff826112de565b61132586836112de565b95508019841693508086168417925050509392505050565b600061135861135361134e84610b5d565b611110565b610b5d565b9050919050565b6000819050919050565b6113728361133d565b61138661137e8261135f565b8484546112eb565b825550505050565b600090565b61139b61138e565b6113a6818484611369565b505050565b5b818110156113ca576113bf600082611393565b6001810190506113ac565b5050565b601f82111561140f576113e0816112b9565b6113e9846112ce565b810160208510156113f8578190505b61140c611404856112ce565b8301826113ab565b50505b505050565b600082821c905092915050565b600061143260001984600802611414565b1980831691505092915050565b600061144b8383611421565b9150826002028217905092915050565b61146482610c4e565b67ffffffffffffffff81111561147d5761147c6111e4565b5b61148782546110df565b6114928282856113ce565b600060209050601f8311600181146114c557600084156114b3578287015190505b6114bd858261143f565b865550611525565b601f1984166114d3866112b9565b60005b828110156114fb578489015182556001820191506020850194506020810190506114d6565b868310156115185784890151611514601f891682611421565b8355505b6001600288020188555050505b505050505050565b61153681610d46565b82525050565b60006040820190506115516000830185610bc0565b61155e602083018461152d565b9392505050565b600061157082610b5d565b915061157b83610b5d565b925082820190508082111561159357611592611242565b5b92915050565b60006080820190506115ae6000830187610bc0565b6115bb602083018661152d565b6115c86040830185610bc0565b6115d56060830184610bc0565b9594505050505056fea264697066735822122043e22bbaa7e26a1e0d609bdb42b12dc7d366efa27a567144f354028e064fe50a64736f6c63430008130033",
  "linkReferences": {},
  "deployedLinkReferences": {}
}